:020000040800F2
:1000000000000420B54A0008DD080008DF080008E9
:10001000E1080008E3080008E50800080000000007
:10002000000000000000000000000000E7080008D9
:10003000E908000800000000EB080008ED080008CF
:10004000054B0008054B0008054B0008054B000850
:10005000054B0008054B0008054B0008054B000840
:10006000054B0008054B0008054B0008054B000830
:10007000054B0008054B0008054B0008054B000820
:10008000054B0008054B0008054B0008054B000810
:10009000054B0008054B0008054B0008054B000800
:1000A000054B0008054B0008054B0008054B0008F0
:1000B000054B0008054B0008054B0008054B0008E0
:1000C000054B0008054B0008054B0008054B0008D0
:1000D000054B0008054B0008054B0008054B0008C0
:1000E000054B0008054B0008054B0008054B0008B0
:1000F000054B0008054B0008054B0008054B0008A0
:1001000000000000054B0008054B0008054B0008E7
:100110000000000000000000054B0008054B00082F
:10012000054B0008054B0008F5080008054B0008C2
:10013000054B0008054B0008054B0008054B00085F
:10014000054B0008054B0008054B00080509000891
:10015000054B0008054B0008054B0008054B00083F
:10016000054B0008054B00080000000000000000DF
:10017000000000000000000000000000000000007F
:10018000054B0008054B00080000000000000000BF
:10019000054B0008054B00080000000000000000AF
:1001A000000000000000000000000000000000004F
:1001B000054B00080000000000000000054B00088F
:0401C000054B0008E3
:1001C40010B5054C237833B9044B13B10448AFF38D
:1001D40000800123237010BDF40100200000000002
:1001E4002C4D000808B5034B1BB103490348AFF37A
:1001F400008008BD00000000F80100202C4D00081C
:1002040053B94AB9002908BF00281CBF4FF0FF3179
:100214004FF0FF3000F06EB9ADF1080C6DE904CE7B
:1002240000F006F8DDF804E0DDE9022304B07047CD
:100234002DE9F047089D04468C46002B40F083804E
:100244008A42174647D9B2FA82F242B1C2F120007B
:1002540024FA00F09140974040EA010C94404FEAA0
:100264001748230CBCFBF8F61FFA87FE08FB16C1DF
:1002740043EA014306FB0EF1994209D9FB1806F142
:10028400FF3080F01981994240F21681023E3B44CE
:100294005B1AA4B2B3FBF8F008FB103344EA03443E
:1002A40000FB0EFEA64509D93C1900F1FF3380F08E
:1002B4000581A64540F2028102383C4440EA0640EA
:1002C400A4EB0E0400261DB1D4400023C5E900436D
:1002D4003146BDE8F08702B9FFDEB2FA82F2002AA5
:1002E40050D1CB1B4FEA174E1FFA87F80126B3FBF8
:1002F400FEFC210C0EFB1C3341EA034108FB0CF30A
:100304008B4207D979180CF1FF3002D28B4200F2EC
:10031400E9808446C91AA3B2B1FBFEF00EFB1011AA
:1003240043EA014408FB00F8A04507D93C1900F151
:10033400FF3302D2A04500F2D9801846A4EB08048A
:1003440040EA0C40BFE78B4209D9002D00F0B18090
:100354000026C5E9000130463146BDE8F087B3FA0E
:1003640083F6002E4AD18B4202D3824200F2B88037
:10037400841A61EB030101208C46002DA8D0C5E945
:10038400004CA5E7C2F1200320FA03F6974001FAD6
:1003940002F04FEA174ED9403043030CB1FBFEF68E
:1003A4001FFA87F80EFB161143EA014306FB08F116
:1003B400994204FA02F409D9FB1806F1FF3C80F0D3
:1003C4008D80994240F28A80023E3B445B1A81B29E
:1003D400B3FBFEF00EFB103341EA034100FB08F3CC
:1003E4008B4207D9791800F1FF3C73D28B4271D943
:1003F40002383944CB1A40EA064678E7C6F1200CA5
:1004040003FA06F422FA0CF31C4320FA0CF701FA5F
:1004140006F34FEA144E21FA0CF11F433B0CB1FBD7
:10042400FEF91FFA84F80EFB191143EA014109FB96
:1004340008FA8A4502FA06F200FA06F308D96118A6
:1004440009F1FF3048D28A4546D9A9F1020921446D
:10045400A1EB0A01BFB2B1FBFEF00EFB101147EA9B
:10046400014700FB08F8B84507D9E71900F1FF3147
:100474002ED2B8452CD90238274440EA0940A7EBCC
:100484000807A0FB02894F45C64649461AD317D030
:100494005DB1B3EB0E0267EB010707FA0CFCF24007
:1004A4004CEA0202F740C5E9002700263146BDE8C0
:1004B400F0872E4628460BE70646E9E61846FDE691
:1004C4004345E5D2B8EB020E69EB04010138DFE7DE
:1004D4000846D2E760468DE78146B9E7664675E788
:1004E40030464AE7ACF1020C394413E702383C4485
:1004F40024E700BF704700BFF0B58DB00024079417
:10050400089409940A940B940194384B1A6B42F0A2
:1005140004021A631A6B02F004020192019A029413
:100524001A6B42F080021A631A6B02F08002029284
:10053400029A03941A6B42F001021A631A6B02F0D6
:1005440001020392039A04941A6B42F002021A63A2
:100554001A6B02F002020492049A05941A6B42F098
:1005640008021A631A6B02F008020592059A0694AF
:100574001A6B42F040021A631B6B03F040030693AC
:10058400069B1B4F224644F28101384602F08CFD43
:10059400184D22464021284602F086FD4FF40053B0
:1005A4000793154B0893099407A9144802F09CFC7F
:1005B40044F2810307930126089609940A9407A933
:1005C400384602F091FC40230793089609940A9454
:1005D40007A9284602F088FC80230793089409940D
:1005E40007A9284602F080FC0DB0F0BD0038024097
:1005F40000040240001802400000111000080240EC
:1006040000B583B000210191094B1A6B42F48002BA
:100614001A631B6B03F480030193019B0A463A207F
:1006240002F064FF3A2002F095FF03B05DF804FB8A
:100634000038024008B50848084B03604FF4E13322
:10064400436000238360C36003610C2242618361C1
:10065400C36103F059FB08BD20020020004800409C
:1006640008B50C480C4B03604FF4827343600023BD
:100674008360C360036143614FF400728261182296
:10068400C2610362436283620A23C36203F07AF89D
:1006940008BD00BF0008002000300140F0B4820013
:1006A400571C8BB25D1C2DB2094C14F8206009480C
:1006B4004654961C991C09B2E75D4755033203332F
:1006C4001BB2A55D4554A25CC254F0BC704700BF88
:1006D400444D00086002002070B5064608461546E1
:1006E40003EB43039C0021B2FFF7D8FFA4B2211D02
:1006F40009B23046FFF7D2FF083421B22846FFF78B
:10070400CDFF70BD08B54FF4B4620549054803F048
:100714004BF9044B1B689B6813F0800FF9D108BD9B
:100724006002002000080020F8B507460E46154672
:100734000024772C07DC23B22A4631463846FFF7DB
:10074400CBFF0134F5E7FFF7DDFFF8BD10B5044634
:10075400084611461A4623B2FFF7BEFFFFF7D2FF41
:1007640010BD000000B583B00023ADF8043064234D
:10077400012201A9024803F045F803B05DF804FB27
:100784000008002070B5A4B03422002117A804F09A
:10079400EDF90024129413941494159416943C22A5
:1007A400214603A804F0E2F90194264B1A6C42F0A6
:1007B40080521A641B6C03F080530193019B0294D2
:1007C400214B1A6842F440421A601B6803F4404308
:1007D4000293029B012617964FF4A0231893022537
:1007E4001D954FF480031E9308231F934FF4C0728A
:1007F400209221932293239517A802F0ABF90F239B
:1008040012931395149415941694314612A801F07A
:100814006FFF202303930D9403A802F03FF802F026
:1008240017F80A4BA3FB0030800902F0A1FE042054
:1008340002F0B4FE224621464FF0FF3002F056FE8D
:1008440024B070BD0038024000700040D34D6210E7
:1008540010B502F0D9FEFFF795FFFFF74DFEFFF745
:10086400CFFEFFF7E7FE00F001F9FFF7F9FEFFF70F
:1008740079FF002211461046FFF756FFC82002F008
:10088400EFFE0024772C0ADC00231A46FA21A0B2DA
:10089400FFF75CFFC82002F0E3FE0134F2E7002416
:1008A400772C0ADC0023FA221946A0B2FFF74EFF88
:1008B400C82002F0D5FE0134F2E70024772CD8DCFE
:1008C400FA2300221146A0B2FFF740FFC82002F02D
:1008D400C7FE0134F2E770477047FEE7FEE7FEE724
:1008E400FEE770477047704708B502F0A7FE08BDE1
:1008F40008B5024802F0FAFC08BD00BF5808002001
:1009040008B5024800F0F2FC08BD00BF881D0020B5
:1009140082B0002100910B4B5A6C42F480425A641D
:100924005A6C02F480420092009A01911A6C42F0CF
:1009340080521A641B6C03F080530193019B02B034
:10094400704700BF0038024030B589B000230393DC
:1009540004930593069307930268234B9A4201D0AC
:1009640009B030BD04460025019503F584335A6C63
:1009740042F480525A645A6C02F480520192019AF1
:1009840002951A6B42F001021A631B6B03F0010318
:100994000293029BA023039302230493059503234C
:1009A40006930523079303A9104802F09DFA104803
:1009B400104B03604FF08063436040238360C56045
:1009C4004FF48063036145618561C5614FF48033F1
:1009D4000362456202F0EEFB18B9054BA3649C6305
:1009E400BEE7FFF778FFF8E700300140000002405F
:1009F400580800204064024000B589B000230393E6
:100A040004930593069307930268164B9A4202D007
:100A140009B05DF804FB0022019203F5F833196C68
:100A240041F480211964196C01F480210191019928
:100A34000292196B41F0080119631B6B03F0080360
:100A44000293029B4FF44073039302230493059291
:100A5400032306930723079303A9034802F044FAE8
:100A6400D6E700BF00480040000C024008B5002251
:100A74000F49104803F086F970B90F490D4803F087
:100A84009DF960B90D490B4803F0E4FF50B90948DA
:100A940003F0A8F948B908BDFFF71DFFEDE7FFF71C
:100AA4001AFFEFE7FFF717FFF1E7FFF714FFF2E78D
:100AB40000000020B8080020800000206000002012
:100AC40012230B80004870472C00002004230B8065
:100AD40000487047400000200C230B8000487047FA
:100AE400200000200023934217D230B40BE03734A7
:100AF40001F8134000015C00013400250D55013359
:100B0400DBB2934207D2040FB0F1204FEFD230345E
:100B140001F81340EEE730BC7047704738B50A4B14
:100B2400186804331C6804331B68C01800D138BD2E
:100B3400064D0822A91CFFF7D5FF042205F1120176
:100B44002046FFF7CFFFF2E7107AFF1F4400002092
:100B540008B51A230B80FFF7E1FF014808BD00BF69
:100B64004400002008B50A4628B90549054803F0A1
:100B7400ABFD034808BD0249024803F0A5FDF8E7B0
:100B8400880B00204451000810B50A46034C214646
:100B9400034803F099FD204610BD00BF880B0020D8
:100BA4005C51000808B50A4628B90549054803F010
:100BB4008BFD034808BD0249024803F085FDF8E7B0
:100BC400880B00207051000808B50A4628B9054969
:100BD400054803F079FD034808BD0249024803F0C3
:100BE40073FDF8E7880B00207C5100080020704753
:100BF400002070470020704710B50146044C204681
:100C040003F037FF204603F03AFF002010BD00BF79
:100C1400B808002010B5064C00220649204603F00F
:100C240020FF0549204603F024FF002010BD00BF2B
:100C3400B808002088150020880D002070B588B001
:100C44000023039304930593069307930368B3F176
:100C5400A04F01D008B070BD002501951C4C236B3A
:100C640043F001032363236B03F001030193019B0E
:100C74004FF4E85303930223049305950323069347
:100C84000A230793134E03A9304602F02DF94FF4BB
:100C9400007303930495059503A9304602F024F9E3
:100CA400636B43F0800363630295636C43F4804396
:100CB4006364636C03F480430293029B2A462946CF
:100CC400432002F013FC432002F044FCC2E700BFBF
:100CD400003802400000024008B500F57171D0F8F8
:100CE400040403F094F808BD08B5C1EBC10300EB9C
:100CF4008303D3F80822D0F8040403F0B4F808BD41
:100D040008B5C1EBC10300EB83039A6CD0F804046B
:100D140003F0E2F808BD08B5D0F8040403F078F94C
:100D240008BD10B50446C368022B09D10121D4F8CB
:100D3400040403F056F9D4F8040403F029F910BDAF
:100D4400FFF7C9FDF2E7000010B50446D0F804042B
:100D540003F04AF92268D2F8003E43F00103C2F8D6
:100D6400003E236A23B1034A136943F00603136167
:100D740010BD00BF00ED00E008B5D0F8040403F096
:100D84003CF908BD08B5D0F8040403F051F908BDD6
:100D940008B5D0F8040403F049F908BD08B5D0F843
:100DA400040403F047F908BD08B5D0F8040403F0BF
:100DB40043F908BD02780AB10020704710B5034614
:100DC4001648C0F80434C3F8C4024FF0A0430360CB
:100DD400062343600222C260002303618261012270
:100DE400C261036243628262C262036300F01EF95D
:100DF40080B90A4C8021204600F086FE4022002162
:100E0400204600F05DFE80220121204600F058FEBD
:100E1400002010BDFFF75FFDEBE700BF881D002039
:100E2400D0F8C43211F0800F08D101F07F01C1EB7A
:100E3400C10103EB810191F8FE01704701F07F01CC
:100E4400C1EBC10103EB810191F83E00704708B585
:100E5400D0F8C40200F081FD08BD000010B50446BE
:100E640011B1012916D010BD036A5BB92268D2F80A
:100E7400003E23F00103C2F8003ED4F8040403F05A
:100E8400BCF8F0E7FFF77EFC0C4A136923F0060375
:100E94001361EBE70268D2F8003E43F00103C2F8A5
:100EA400003ED0F8040403F09FF8236A002BDAD044
:100EB400024A136943F006031361D4E700ED00E02E
:100EC400032805D8DFE800F0050402050120704777
:100ED4000320704708B5D0F8C40200F041F9FFF7C9
:100EE400EFFF08BD10B514461A462346D0F8C402D5
:100EF40000F088FCFFF7E4FF10BD08B5D0F8C40289
:100F040000F0C3FCFFF7DCFF08BD08B5D0F8C4024D
:100F140000F057FDFFF7D4FF08BD08B5D0F8C402B0
:100F240000F093FDFFF7CCFF08BD08B5D0F8C4026C
:100F340000F054FCFFF7C4FF08BD08B5D0F8C402A4
:100F440000F014FDFFF7BCFF08BD08B5D0F8C402DB
:100F540000F0D4FCFFF7B4FF08BD2DE9F04782B0E0
:100F6400D0F80080C1EBC10300EB83035A6D1B6D05
:100F74009A4255D807460C46C1469B1AC1EBC1029A
:100F840000EB8202526C9A4200D31A4602F1030A21
:100F94004FEA9A0A15E006F1030A4FEA9A0AC4EBEB
:100FA400C40507EB8505A96C3B7C0093B3B2E2B2A0
:100FB400404601F009F9AB6C3344AB646B6D1E44DD
:100FC4006E6509EB441303F510639B699BB25345AB
:100FD40012D3C4EBC40207EB8202516D136D994224
:100FE4000AD24BB15B1AC4EBC40207EB8202566C03
:100FF4009E42D0D31E46CEE7C4EBC40007EB800765
:101004003A6D7B6D9A420FD804F00F040123A3407C
:10101400D8F8344824EA0304C8F83448002000E02F
:10102400012002B0BDE8F0870020FAE7F0B58BB0EC
:10103400002800F093800546046890F8BD332BB374
:10104400032385F8BD33E36B13F4807F01D10023C0
:101054002B61286800F04CFE2C4654F8107B6E4639
:101064000FCC0FC60FCC0FC694E8030086E803002C
:101074002B1D0ECB384600F07DFD044658B10223EB
:1010840085F8BD33012420460BB0F0BD80F8BC3395
:10109400FFF7D4FDD4E70021286800F02FFE234693
:1010A40016E0C3EBC30205EB8202012182F83D1076
:1010B40082F83C30A2F84230002182F83F1051649B
:1010C4009164C3EBC30205EB820211650133DBB209
:1010D40069688B42E5D316E0C4EBC40305EB8303D4
:1010E400002283F8FD2183F8FC4183F8FF21C3F833
:1010F4000422C3F80822C4EBC40305EB8303C3F83A
:1011040010220134E4B2A142E6D82C4654F8107BF4
:101114006E460FCC0FC60FCC0FC694E8030086E8CA
:1011240003002B1D0ECB384600F02EFE044660B99A
:10113400002385F83830012385F8BD336B6A012B11
:1011440008D0286801F0EAF99DE7022385F8BD3349
:10115400012498E7284600F0DBFCF2E7012492E73B
:10116400026890F8BC33012B19D010B50446012352
:1011740080F8BC33836A012B09D0206800F0B2FDEB
:10118400206801F0BDF9002084F8BC0310BD836918
:10119400012BF2D0936B43F480339363EDE7022089
:1011A4007047000070B504460D460068066C00EBFD
:1011B400411303F530639A682169012911D0354937
:1011C4008E4250D03DB9C5EBC50304EB8303D3F87D
:1011D4001032002B58D0E9B22046FFF785FD0020DD
:1011E40070BD12F0080F09D02B498E42F7D912F4C2
:1011F400004FF4D04FF400429A60F0E712F0200F51
:1012040002D020229A60EAE712F0280FE7D122499F
:101214008E4206D912F4004F03D04FF400429A6074
:10122400DDE7C5EBC50204EB8202D2F804121B69A8
:10123400C3F31203C91AC2F81412D2F80412D2F872
:1012440008320B44C2F8083215B9D2F8103223B16F
:10125400E9B22046FFF748FDC1E704F571720121A8
:1012640001F0B0F9F4E712F4004F03D04FF4004258
:101274009A60B4E712F0200F01D020229A60E9B2FC
:101284002046FFF731FDAAE704F57172002101F051
:1012940099F9A0E70A31544F0A30544F38B504463F
:1012A40003681D6C03EB4113D3F8081B0E4A9542E7
:1012B40007D903F5306311F4004F02D04FF4004214
:1012C4009A602046FFF708FD074B9D4202D9236927
:1012D400012B01D0002038BD04F571720121206872
:1012E40001F070F9F6E700BF0A30544F2DE9F04FD2
:1012F40083B004460568284601F04FF910B103B0E5
:10130400BDE8F08F2F460646206801F015F9002845
:10131400F5D0206801F010F910F0020F04D0226813
:10132400536903F002035361206801F005F910F0DA
:10133400100F15D02268936923F010039361D5F838
:10134400208008F00F09C8F34343022B00F0858086
:10135400062B00F0AA802268936943F0100393617E
:10136400206801F0E9F810F4002F40F0B080206804
:1013740001F0E2F810F4802F40F0F480206801F0CE
:10138400DBF80028C0F26081206801F0D5F810F481
:10139400006F0AD0D5F8083813F0010F40F06E81C1
:1013A4002268536903F400635361206801F0C4F8B0
:1013B40010F0006F15D02268536903F00063536185
:1013C40094F8F433002B40F05D81012184F8F41388
:1013D40023685B6DC3F38303C4F8F8332046FFF737
:1013E4003DFD206801F0A8F810F4805F40F04E81C4
:1013F400206801F0A1F810F4005F40F0AD8120688E
:1014040001F09AF810F0080F40F0BE81206801F056
:1014140093F810F4801F40F0C081206801F08CF82C
:1014240010F4001F40F0C381206801F085F810F02B
:10143400804F40F0C681206801F07EF810F0040F60
:101444003FF45DAF23685D6815F0040F40F0C2817E
:10145400226853682B43536051E747F6F07318EA48
:10146400030F3FF478AF4FEA181B4FEAC903019307
:10147400C9EBC90A04EB8A0AC8F30A12DAF808129B
:10148400284600F0C1FFCBF30A0BDAF808325B44BC
:10149400CAF80832019BA3EB090304EB8303D3F8D6
:1014A40014325B44CAF8143255E7082204F571710A
:1014B400284600F0A9FFC8F30A18C9EBC90204EBD7
:1014C4008202D2F814324344C2F8143243E720684B
:1014D40001F036F88046B14617E007EB49130122C4
:1014E400C3F8082B49462046FFF75CFE1DE007EBD6
:1014F40049130822C3F8082B49462046FFF7CEFEBD
:1015040016E009F101094FEA5808B8F1000F3FF459
:101514002EAF18F0010FF4D05FFA89F1206801F0C2
:101524001FF8824610F0010FD7D11AF0080FDED150
:101534001AF0100F04D007EB49131022C3F8082B3C
:101544001AF0200F04D007EB49132022C3F8082B0C
:101554001AF4005FD5D007EB49134FF40052C3F8D7
:10156400082BCEE7206800F0F3FF8046B1462AE05E
:1015740059462046FFF7C4FB1AF0080F04D007EBC6
:1015840049130822C3F808291AF0100F04D007EBF6
:1015940049131022C3F808291AF0400F04D007EBAE
:1015A40049134022C3F808291AF0020F04D007EBAC
:1015B40049130222C3F808291AF0800F3FD109F118
:1015C40001094FEA5808B8F1000F3FF4D7AE18F0FC
:1015D400010FF4D05FFA89FB5946206800F0C9FF77
:1015E400824610F0010FC7D009F00F03012101FA60
:1015F40003F2D7F8343823EA0203C7F8343807EB88
:101604004913C3F8081923698B42B1D1C9EBC90343
:1016140004EB8303596C9A6C0A449A64B9F1000F81
:10162400A6D1C9EBC90304EB83031B6D002B9FD127
:1016340004F571720121206800F0C4FF98E749465F
:101644002046FFF78AFCBAE7D5F8043823F00103F3
:10165400C5F8043894F8F433012B08D02046FFF77A
:101664008BFB2268536903F0004353618CE600212D
:1016740084F8F4132046FFF7F1FBF2E72046FFF766
:1016840063FB8DE62046FFF75FFBAAE605F50068DD
:10169400D8F8043023F00103C8F80430102120687E
:1016A40000F044FB20E007EB46134FF67F31C3F80C
:1016B4000819D3F8002922F40012C3F80029D3F83A
:1016C400002942F00062C3F80029C3F8081BD3F8CC
:1016D400002B22F40012C3F8002BD3F8002B42F0A5
:1016E4000062C3F8002B01366368B342DBD8D8F834
:1016F4001C3043F00113C8F81C30236BEBB1D8F84D
:10170400843043F00B03C8F88430D8F8443043F0F5
:101714000B03C8F84430D5F8003823F4FE63C5F849
:10172400003804F57172217C206800F04BFF2268B8
:10173400536903F4805353615AE6D8F8143043F4E0
:10174400005343F02B03C8F81430D8F8103043F09A
:101754000B03C8F81030DEE7206800F022FF206891
:1017640000F0DAFBE060256801F072F80146227BA4
:10177400284600F045FA2046FFF7D3FA2268536959
:1017840003F4005353613AE62046FFF7C4FA226893
:10179400536903F00803536138E600212046FFF73C
:1017A400F7FA2268536903F48013536135E6002184
:1017B4002046FFF7E7FA2268536903F400135361E4
:1017C40032E62046FFF7EAFA2268536903F08043C1
:1017D400536130E62046FFF7E7FA39E690F8BC3368
:1017E400012B0DD010B50446012380F8BC3380F8DA
:1017F4003810006800F074FE002084F8BC0310BDAB
:1018040002207047F8B507460C4611F0800F27D127
:1018140001F00F05C5EBC506B60006F5FC760644D7
:10182400311DC5EBC50500EB8505002085F8FD01DC
:1018340004F00F040C708A60CB704A7802B1CC803B
:10184400022B1DD097F8BC33012B1CD0012387F841
:10185400BC33386800F071FB002087F8BC03F8BD86
:1018640001F00F00C0EBC001890038313944043164
:10187400C0EBC00007EB8000012580F83D50D7E79E
:1018840000230B71DEE70220E9E710B504460A469F
:1018940011F0800F20D101F00F00C0EBC0039B00BA
:1018A40003F5FC732344191DC0EBC00004EB800056
:1018B400002380F8FD3102F00F020A7094F8BC3363
:1018C400012B19D0012384F8BC33206800F080FB7D
:1018D400002084F8BC0310BD01F00F00C0EBC0036E
:1018E4009B0038332344191DC0EBC00004EB800077
:1018F400012380F83D30DEE70220ECE738B501F043
:101904000F04C4EBC401890001F5FC7101440431E6
:10191400C4EBC40500EB8505C5F80822C5F81032F0
:101924000023C5F8143285F8FD3185F8FC410369BC
:10193400012B06D064B9DAB2006800F0B7FB0020CE
:1019440038BDC4EBC40500EB8505C5F80C22F1E7EE
:10195400DAB2006800F04CFCF1E701F00F01C1EBD2
:10196400C10100EB8101D1F81402704738B501F0D0
:101974000F04C4EBC4018900383101440431C4EBC1
:10198400C40500EB8505AA642B6500236B65012360
:1019940085F83D3085F83C400369012B06D05CB9DD
:1019A400DAB2006800F082FB002038BDC4EBC40545
:1019B40000EB8505EA64F2E7DAB2006800F018FC8F
:1019C400F2E738B501F00F054268954239D804466C
:1019D4000B4611F0800F1FD1C1EBC101890001F545
:1019E400FC7101440431C3EBC30300EB8303002205
:1019F40083F8FD2101238B700D7094F8BC33012B07
:101A040021D0012384F8BC33206800F00EFD8DB191
:101A1400002084F8BC0338BDC5EBC501890038310A
:101A240001440431C5EBC50300EB8303012283F8B1
:101A34003D20DFE704F57172217C206800F0C2FDCF
:101A4400E6E70120E7E70220E5E701F00F0342683B
:101A5400934231D810B5044611F0800F1ED1C3EB68
:101A6400C301890001F5FC7101440431C3EBC302D5
:101A740000EB8202002082F8FD0100228A700B70C4
:101A840094F8BC33012B19D0012384F8BC332068AB
:101A940000F0F8FC002084F8BC0310BDC3EBC301C4
:101AA4008900383101440431C3EBC30200EB8202E4
:101AB400012082F83D00E0E7012070470220ECE7B6
:101AC40030B40468606A19B940EA0240A06218E0C0
:101AD4000D46A36A00EB13400023691E8B4209D212
:101AE40003F1400104EB8101496800EB114001332B
:101AF400DBB2F2E740EA024005F13F0104EB810169
:101B04004860002030BC7047036859620020704769
:101B1400034602680121C0F8FC13002083F8F40393
:101B2400936943F000639361536D43F0805343F032
:101B34000303536570470000002301330C4A9342AA
:101B440011D80269002AF8DA036943F0010303613A
:101B540000230133064A934207D8026912F0010FA9
:101B6400F7D100207047032070470320704700BF5F
:101B7400400D030084B010B5044603A880E80E00AD
:101B8400089B012B1FD1A36B23F48033A363E36869
:101B940023F4840323F04003E360E36823F4401355
:101BA400E3600F9B012B09D02046FFF7C5FF069B7E
:101BB400012B1BD0BDE8104004B07047E36843F428
:101BC4008013E360F0E7E36843F04003E3602046FA
:101BD400FFF7B2FF0C9B23B9A36B43F48033A363D9
:101BE400E5E7A36B23F48033A363E0E7A36843F042
:101BF4000603A360A36843F02003A360DAE70000B0
:101C0400022A0AD00921C26822F47052C260C36851
:101C140043EA8123C36000207047234B0B44234ACB
:101C240093422FD9224B0B44224A93422CD9A1F53B
:101C34007403A3F51053204A934227D9A1F1837367
:101C4400A3F5E7431D4A934222D31D4B0B441D4A7F
:101C540093421FD91C4B0B441C4A93421CD31C4B6C
:101C64000B441C4A934219D3A1F1B773A3F55853FB
:101C7400194A934214D3194B0B44194A934211D273
:101C84000721C0E70F21BEE70E21BCE70D21BAE70B
:101C94000C21B8E70B21B6E70A21B4E70921B2E722
:101CA4000821B0E70621AEE7405327FFFF340C00BC
:101CB400401E1BFF3F420F007F4F120020D613002F
:101CC40060B6E5FE5FE3160000D3CEFE40771B004E
:101CD400C05BB3FEC091210020753800E05459FE6A
:101CE400E09C4100836843F0010383600020704757
:101CF400836823F0010383600020704708B5C3683C
:101D040023F0C043C360012909D069B9C36843F013
:101D14008043C360322001F0A3FC002008BDC368E7
:101D240043F00053C360F5E70120F7E7890141F070
:101D34002001016100230133054A934205D8026959
:101D440012F0200FF7D1002070470320704700BF26
:101D5400400D03001023036100230133054A93421D
:101D640005D8026912F0100FF7D100207047032044
:101D7400704700BF400D0300D0F800381943C0F885
:101D8400001800207047000084B02DE9F843044691
:101D940009A880E80E002546002306E003F140026E
:101DA40004EB82020021516001330E2BF6D9DDF8D9
:101DB4004C80B8F1000F24D1D4F8043843F0020366
:101DC400C4F80438A36B23F40013A363236843F01B
:101DD40040032360236843F0800323600023C4F896
:101DE400003E04F50066D4F80038C4F800380E9BB1
:101DF400012B10D10B9B4BB900212046FFF7BCFFF0
:101E04000DE0A36B43F40013A363E7E7012120462D
:101E1400FFF7B2FF03E003212046FFF7ADFF1021D7
:101E24002046FFF783FF814608B14FF001092046A1
:101E3400FFF790FF08B14FF001090023336173618C
:101E4400F3610AE0C3B94FF00060C2F80009002250
:101E54000A614FF67F328A600133099F9F4210D98D
:101E640005EB431202F51061D2F800090028E9DB02
:101E74000020C2F80009EAE74FF09040C2F80009D8
:101E8400E5E700230AE0BBB14FF09040C2F8000B35
:101E940000220A614FF67F328A6001339F4210D9D3
:101EA40005EB431202F53061D2F8000B0028EADB9F
:101EB4000020C2F8000BEBE74FF00060C2F8000B03
:101EC400E6E7336923F4807333610023A3616FF081
:101ED400804363610C9B1BB9A36943F01003A361A6
:101EE400A2690C4B1343A3610F9B1BB1A36943F07D
:101EF4000803A361B8F1010F04D04846BDE8F843D4
:101F040004B07047A36943F0804343F00403A36122
:101F1400F3E700BF00383C80D0F8083813F006031C
:101F240007D0022B07D0062B01D00F2070470220C8
:101F34007047002070470220704770B40C784B78CB
:101F4400012B22D0D0F81C3804F00F060122B24035
:101F540043EA0243C0F81C3800EB4410D0F8003BBD
:101F640013F4004F0ED1D0F8003B8A68C2F30A0282
:101F7400C97842EA8142134343F0805343F4004357
:101F8400C0F8003B002070BC7047D0F81C2804F057
:101F94000F06B3409BB21343C0F81C3800EB441047
:101FA400D0F8003913F4004FECD1D0F800398A6826
:101FB400C2F30A02C97842EA814242EA84541C43C9
:101FC40044F0805444F40044C0F80049DAE70000C7
:101FD40030B40B784A78012A24D000EB4313D3F8A9
:101FE400002B002A50DBD0F83C580A7802F00F028C
:101FF400012404FA02F225EA0242C0F83C28D0F88F
:102004001C28097801F00F018C4022EA0444C0F82E
:102014001C48D3F8001B234A0A40C3F8002B0020B5
:1020240030BC704700EB4313D3F80029002A1EDBB1
:10203400D0F83C580A7802F00F02012404FA02F2A4
:1020440092B225EA0202C0F83C28D0F81C2809788C
:1020540001F00F018C40A4B222EA0404C0F81C4829
:10206400D3F80019104A0A40C3F80029D7E7D3F877
:10207400002942F00062C3F80029D3F8002942F095
:102084008042C3F80029D3E7D3F8002B42F0006262
:10209400C3F8002BD3F8002B42F08042C3F8002B86
:1020A400A1E700BF0078F3EF007833EC70B40B784D
:1020B4004C78012C26D000EB431000F530631C69EA
:1020C400E40CE4041C611C6924F0FF5424F4C014DF
:1020D4001C614C690CB18C684C611C6944F400248B
:1020E4001C611C698D68C5F312052C431C61012A0F
:1020F40065D0D0F8003B43F00443C0F8003B002017
:1021040070BC70474C696CBB00EB4314D4F8105995
:1021140025F0FF5525F4C015C4F81059D4F810590A
:1021240045F40025C4F81059D4F81059ED0CED0409
:10213400C4F81059012A33D000EB4313D3F8002913
:1021440042F00442C3F800294B69002BD7D0D0F8E1
:1021540034380A7802F00F0101228A401343C0F890
:102164003438CCE700EB431404F510642569ED0C16
:10217400ED042561256925F0FF5525F4C015256179
:102184004E698D68AE4200D94D61256945F400253C
:10219400256125694E69C6F3120635432561C9E7F1
:1021A4000A691AB100EB4311C1F8142900EB43107A
:1021B400D0F8002942F00442C0F800299FE7CA6819
:1021C400002A96D05A6194E770B49DF80C4064B923
:1021D40003339D08AC4208D200EB023303F580536D
:1021E40051F8046B1E600134F4E7002070BC7047A2
:1021F400F0B583B00B784C78012C2BD000EB431353
:1022040003F530642569ED0CED042561256925F09D
:10221400FF5525F4C01525614D69002D40F0C3809C
:1022240025698E68C6F3120635432561256945F490
:1022340000252561012A00F0CB80CA78012A00F02C
:10224400CD80D3F8002B42F00442C3F8002B0020C9
:1022540003B0F0BD4C6984BB00EB4314D4F81059AF
:1022640025F0FF5525F4C015C4F81059D4F81059B9
:1022740045F40025C4F81059D4F81059ED0CED04B8
:10228400C4F81059012A4CD000EB4313D3F8004989
:1022940044F00444C3F80049CC78012C6AD04B695B
:1022A400002BD4D0D0F83428097801F00F04012190
:1022B400A1400A43C0F83428C9E700EB4314D4F81A
:1022C4001059ED0CED04C4F81059D4F8105925F048
:1022D400FF5525F4C015C4F81059D4F810694D6998
:1022E4008F683D44013DB5FBF7F5464F07EAC54508
:1022F4003543C4F81059D4F810594E69C6F3120680
:102304003543C4F8105904F51064CD78012DB9D1C2
:10231400256925F0C0452561256945F000552561ED
:10232400B0E70A691AB100EB4314C4F81429CA7857
:10233400012A08D000EB4313D3F8002942F00442E9
:10234400C3F8002983E7D0F8082812F4807F08D165
:1023540000EB4311D1F8002942F00052C1F80029E2
:10236400E8E700EB4311D1F8002942F08052C1F8AC
:102374000029DFE7D0F8084814F4807F0CD1D3F8A3
:10238400004944F00054C3F8004900928B8A0A784B
:10239400C968FFF719FF5AE7D3F8004944F080549D
:1023A400C3F80049F1E78E683544013DB5FBF6F505
:1023B4002669144F07EAC5473E43266127698E689C
:1023C400ADB206FB05F5C5F312053D43256131E7C2
:1023D400CA68002A3FF431AF62612EE7D0F80828BA
:1023E40012F4807F06D1D3F8002B42F00052C3F8D8
:1023F400002B26E7D3F8002B42F08052C3F8002BC1
:102404001FE700BF0000F81F10B403329408002334
:10241400A34206D200F58052126841F8042B01331E
:10242400F6E708465DF8044B70470B784A78012AB2
:1024340014D000EB4310D0F8002B002A06DB2BB19C
:10244400D0F8003B23F08043C0F8003BD0F8003BB9
:1024540043F40013C0F8003B0020704700EB431026
:10246400D0F80029002A06DB2BB1D0F8003923F07C
:102474008043C0F80039D0F8003943F40013C0F8A1
:102484000039E9E70B784A78012A0ED000EB4310B3
:10249400D0F8003B23F40013C0F8003BCB78023B98
:1024A400DBB2012B15D90020704700EB4310D0F8A4
:1024B400003923F40013C0F80039CB78023BDBB2B7
:1024C400012BF0D8D0F8003943F08053C0F800391C
:1024D400E9E7D0F8003B43F08053C0F8003BE2E763
:1024E400D0F8003823F4FE63C0F80038D0F8003880
:1024F400090101F4FE611943C0F800180020704777
:10250400D0F8003E23F00303C0F8003ED0F80438AE
:1025140023F00203C0F8043800207047D0F8003ECE
:1025240023F00303C0F8003ED0F8043843F002035C
:10253400C0F8043800207047426980691040704731
:10254400D0F8183800F50060C0691840000C7047D6
:10255400D0F8183800F50060C069184080B27047A0
:1025640000EB4111D1F8082B00F5006040691040E0
:10257400704710B4D0F81048D0F8343801F00F0286
:10258400D340DB01DBB2234300EB411000F51060C4
:10259400806818405DF8044B7047406900F0010002
:1025A4007047D0F8003923F4FF6323F00703C0F821
:1025B4000039D0F8043843F48073C0F8043800209C
:1025C4007047000010B4046C154B9C4203D9D0F83A
:1025D400003B002B16DB0024C0F8104BD0F8104B46
:1025E40044F40024C0F8104BD0F8104B44F0180405
:1025F400C0F8104BD0F8104B44F0C044C0F8104B56
:10260400012903D000205DF8044B7047C0F8142B57
:10261400D0F8003B43F08023C0F8003BF2E700BF52
:102624000A30544FF8B52F4B9B6803F00C03042B6E
:1026340053D0082B53D12B4B5A6802F03F025B68EE
:1026440013F4800F28D0274B5B68C3F38813580119
:102654000021C01A61F100018E0146EA90668701EB
:102664003C1A66EB0105E90041EA5471E000C01828
:1026740041F100014B0243EAD0534402204619467B
:102684000023FDF7BDFD174B5B68C3F30143013322
:102694005B00B0FBF3F023E0124B5B68C3F38813D9
:1026A4005C010025E41A65F10005AE0146EA946672
:1026B400A701381B66EB0501CC0044EA5074C50041
:1026C400E81844F100018B0243EA90538402204647
:1026D40019460023FDF794FDD5E7034800E00348BD
:1026E400F8BD00BF0038024000127A000024F40054
:1026F400002800F09B8070B50D4604464F4B1B68C4
:1027040003F00F038B4208D2CBB24C4A1370136808
:1027140003F00F038B4240F08B80236813F0020F09
:1027240017D013F0040F04D0454A936843F4E053E0
:102734009360236813F0080F04D0414A936843F46C
:10274400604393603E4A936823F0F003A1680B430F
:102754009360236813F0010F32D06368012B21D0FA
:102764009A1E012A25D9364A126812F0020F61D046
:1027740033498A6822F0030213438B6000F06AFF36
:1027840006462F4B9B6803F00C036268B3EB820F81
:1027940016D000F05FFF801B41F288339842F0D9D5
:1027A400032042E0264A126812F4003FE0D10120DF
:1027B4003BE0234A126812F0007FD9D1012034E0B3
:1027C4001E4B1B6803F00F03AB4207D9EAB21B4B45
:1027D4001A701B6803F00F03AB422DD1236813F06A
:1027E400040F06D0164A936823F4E053E1680B43C0
:1027F4009360236813F0080F07D0114A936823F4F9
:102804006043216943EAC1039360FFF70BFF0C4B5C
:102814009B68C3F303130B4AD35CD8400A4B18607C
:102824000A4B186800F0CAFE002070BD01207047F2
:102834000120FAE70120F8E70120F6E7003C024016
:1028440000380240945100087C00002078000020E9
:10285400014B1868704700BF7C00002008B5FFF7E3
:10286400F7FF044B9B68C3F38223034AD35CD8402D
:1028740008BD00BF00380240A451000808B5FFF7A6
:10288400E7FF044B9B68C3F34233034AD35CD8404D
:1028940008BD00BF00380240A451000870B582B0E2
:1028A4000446056815F001050CD0A44AD2F88C3012
:1028B40023F0C06341690B43C2F88C304369002B99
:1028C4006CD00025236813F0020F0BD09B4AD2F87A
:1028D4008C3023F0C053A1690B43C2F88C30A36938
:1028E40003B90125236813F0080F59D1236813F0A5
:1028F400040F03D094F83820914B1A60236813F026
:10290400100F08D08D4AD2F8943023F44003616A42
:102914000B43C2F89430236813F0200F0DD0874A7C
:10292400D2F8943023F00063A16A0B43C2F89430C8
:10293400A36AB3F1006F00F09A80236813F0400F8C
:1029440008D07E4AD2F8943023F08053216A0B4396
:10295400C2F89430002D40F08C802368802B00F066
:102964008880236813F4807F08D0744AD2F88C30AE
:1029740023F00043E16A0B43C2F88C30236813F45C
:10298400007F00F0D7806D4AD2F88C3023F40043E6
:10299400216B0B43C2F88C300020CCE0012591E779
:1029A40000230193654B1A6C42F080521A641B6C2D
:1029B40003F080530193019B624A136843F48073CC
:1029C400136000F047FE06465E4B1B6813F4807FDD
:1029D40006D100F03FFE801B0228F5D90320AAE0AF
:1029E400564B1B6F13F4407312D0E26902F4407229
:1029F4009A420DD0514B1A6F22F440725249012071
:102A04000860002008601A671B6F13F0010F12D1D1
:102A1400E36903F44072B2F5407F1DD0474A9368DE
:102A240023F4F813936045490B6FE269C2F30B0278
:102A340013430B675AE700F00DFE06463F4B1B6F2E
:102A440013F0020FE4D100F005FE801B41F288333D
:102A54009842F3D903206EE038498A6822F4F812C8
:102A640023F0704323F4407313438B60DBE70125A9
:102A740063E7364B00221A6000F0ECFD05462F4B4D
:102A84001B6813F0006F06D000F0E4FD401B022821
:102A9400F5D903204FE0626B2D4B1A60236813F0C5
:102AA400010F01D06269A2B113F0020F01D0A26933
:102AB4007AB113F0200F03D0A26AB2F1006F08D0EC
:102AC40013F0400F12D0236A83B9A36AB3F1006FE5
:102AD4000CD16368A26843EA8213E26843EA0263A2
:102AE400226943EA0273154AC2F88430236813F05A
:102AF400800F0CD06368A26843EA8213E26843EA59
:102B04000263226943EA02730C4AC2F884300F4B11
:102B140001221A6000F09EFD0546084B1B6813F065
:102B2400006F7FF41EAF00F095FD401B0228F4D91E
:102B3400032000E0002002B070BD00BF0038024056
:102B4400E011474200700040400E4742680047428F
:102B5400D810474270B582B00446036813F0010FE1
:102B64003BD0A74B9B6803F00C03042B2CD0A44B45
:102B74009B6803F00C03082B21D06368B3F5803FF6
:102B84004FD0B3F5A02F52D09D4B1A6822F4803257
:102B94001A601A6822F480221A606368002B50D0ED
:102BA40000F058FD0546964B1B6813F4003F14D102
:102BB40000F050FD401B6428F5D903208CE1904BB4
:102BC4005B6813F4800FD8D08D4B1B6813F4003F5F
:102BD40003D06368002B00F07A81236813F0020F9E
:102BE40054D0874B9B6813F00C0F3ED0844B9B68EA
:102BF40003F00C03082B33D0E368002B67D0814B20
:102C040001221A6000F026FD05467D4B1B6813F077
:102C1400020F53D100F01EFD401B0228F5D90320FA
:102C24005AE1774A136843F480331360B5E7744B71
:102C34001A6842F480221A601A6842F480321A60D8
:102C4400ABE700F007FD05466D4B1B6813F4003F2E
:102C5400C3D000F0FFFC401B6428F5D903203BE1FE
:102C6400674B5B6813F4800FC6D1654B1B6813F088
:102C7400020F03D0E368012B40F02B81604A1368F4
:102C840023F0F803216943EAC1031360236813F0B6
:102C9400080F40D0636963B35B4B01221A6000F0F4
:102CA400D9FC0546564B5B6F13F0020F33D100F08D
:102CB400D1FC401B0228F5D903200DE1504A1368CA
:102CC40023F0F803216943EAC1031360DEE74D4BA7
:102CD40000221A6000F0BEFC0546494B1B6813F045
:102CE400020FD3D000F0B6FC401B0228F5D9032014
:102CF400F2E0454B00221A6000F0ACFC0546404B64
:102D04005B6F13F0020F06D000F0A4FC401B0228F6
:102D1400F5D90320E0E0236813F0040F79D0384B91
:102D24001B6C13F0805F0DD100230193344B1A6C9C
:102D340042F080521A641B6C03F080530193019B90
:102D4400012500E00025314B1B6813F4807F21D05E
:102D5400A368012B32D0052B36D0294B1A6F22F0F1
:102D640001021A671A6F22F004021A67A368002B83
:102D740034D000F06FFC0646214B1B6F13F0020F9A
:102D840046D100F067FC801B41F288339842F3D9A6
:102D94000320A1E01D4A136843F48073136000F01C
:102DA40059FC0646194B1B6813F4807FD0D100F000
:102DB40051FC801B0228F5D903208DE0104A136FC3
:102DC40043F001031367D1E70D4B1A6F42F004027D
:102DD4001A671A6F42F001021A67C7E700F03AFC5B
:102DE4000646074B1B6F13F0020F11D000F032FCA4
:102DF400801B41F288339842F3D903206CE000BF72
:102E04000038024000004742800E474200700040F4
:102E1400E5B9A369002B5ED0314A926802F00C0236
:102E2400082A5BD0022B17D02E4B00221A6000F028
:102E340011FC04462A4B1B6813F0007F45D000F0B8
:102E440009FC001B0228F5D9032045E0244A136C31
:102E540023F080531364DCE7224B00221A6000F055
:102E6400F9FB05461E4B1B6813F0007F06D000F0EB
:102E7400F1FB401B0228F5D903202DE0E369226A07
:102E84001343626A43EA8213A26A5208013A43EA8C
:102E94000243E26A43EA0263226B43EA0273104A82
:102EA4005360104B01221A6000F0D4FB04460C4B13
:102EB4001B6813F0007F06D100F0CCFB001B022836
:102EC400F5D9032008E0002006E0002004E00120FA
:102ED40002E0012000E0002002B070BD0120FBE709
:102EE400003802406000474200230F2B00F2D380D9
:102EF400F0B583B039E0062200E00022B2403A4344
:102F04000234654E46F82420644A1468EA4324EAED
:102F140005064F6817F4803F01D045EA04065F4C6C
:102F24002660646802EA04064F6817F4003F01D083
:102F340045EA0406594C6660A46802EA04064F6830
:102F440017F4801F01D045EA0406544CA660E468D7
:102F540022404E6816F4001F01D045EA04024F4C8B
:102F6400E26001330F2B00F2948001229A400C6836
:102F740004EA020532EA0404F3D14C68661E012E09
:102F840003D9112C01D0122C12D186685F000324BE
:102F9400BC4026EA0406CC68BC40344384604668DE
:102FA40026EA02064C68C4F300129A403243426097
:102FB400C7685E000324B440E24327EA04078C6830
:102FC400B4403C43C4604C68022C01D0122C13D191
:102FD400DF08083750F827E003F007044FEA840CB1
:102FE4000F2404FA0CF42EEA040E0C6904FA0CF40F
:102FF40044EA0E0440F82740046814404A6802F08A
:103004000302B240224302604A6812F0805FA8D0F3
:1030140000220192224A546C44F480445464526C59
:1030240002F480420192019A9C08A61C1A4A52F8A2
:10303400267003F0030296000F22B24027EA02072B
:10304400184A90423FF459AF02F58062904216D07C
:1030540002F58062904214D002F58062904212D050
:1030640002F58062904210D002F5806290420ED048
:1030740002F5806290423FF43EAF07223EE7012210
:103084003CE702223AE7032238E7042236E7052226
:1030940034E703B0F0BD704700380140003C014004
:1030A40000380240000002400AB1816170470904FF
:1030B4008161704730B405682C6824F480242C6046
:1030C400046863608368402B05D0036899600368D3
:1030D400DA6030BC704703689A600368D960F8E727
:1030E40010B40368D9B210390C4AA2FB0142120988
:1030F4000B4CA25CC2655F2909D923F47F7323F0CA
:10310400030304338365806D5DF8044B704723F437
:103114007F7323F003038365F5E700BFABAAAAAA74
:103124008C510008836A826992B9012B0AD0022B60
:1031340002D00BB100207047C36A13F0807F28D1FE
:1031440000207047C36AB3F1C07F24D000207047C9
:10315400B2F5005F09D0022B25D9032B25D1C36A10
:1031640013F0807F23D100207047032B03D8DFE8BE
:1031740003F01404140A00207047C36A13F0807F1C
:103184000DD100207047C36AB3F1C07F09D000207D
:1031940070470120704701207047012070470120CB
:1031A40070470120704701207047002070470120BC
:1031B4007047000070B5044600F04CFA002C5BD058
:1031C4000546002384F83430022384F8353022681D
:1031D400136823F00103136023681A6812F0010FC7
:1031E4000AD000F037FA431B052BF5D92023636579
:1031F400032084F8350070BD1A68204810406168C7
:10320400A2680A43E1680A4321690A4361690A43DF
:10321400A1690A43E1690A43216A0A430243616AD4
:1032240004291ED01A602668756925F00705636AAB
:103234001D43042B07D1A36A1D43E36A1BB1204637
:10324400FFF770FF90B975612046FFF749FFE26D03
:103254003F239340836000206065012384F8353068
:10326400C9E7E16A206B01430A43DBE74023636556
:10327400012084F83500BEE70120BCE73F8010F050
:1032840038B50446856D90F8340001282BD0012010
:1032940084F8340094F83500C0B2012804D0002327
:1032A40084F83430022038BD022084F83500002030
:1032B40060652046FFF7FEFEE26D3F239340AB605E
:1032C4002268136843F016031360236C23B1226849
:1032D400136843F0080313602268136843F0010382
:1032E40013600020DFE70220DDE70000F0B583B0C3
:1032F400044600230193724B1D68724BA3FB0535F2
:10330400AD0A876D3E68C26D08239340334210D0E6
:1033140003681A6812F0040F0BD01A6822F0040232
:103324001A60C26D08239340BB60436D43F00103F0
:103334004365E26D01239340334209D02268526908
:1033440012F0800F04D0BB60636D43F00203636529
:10335400E26D04239340334209D02268126812F0CC
:10336400020F04D0BB60636D43F004036365E26D38
:1033740010239340334224D02268126812F0080FBD
:103384001FD0BB6023681A6812F4802F0DD01B680D
:1033940013F4002F04D1236C9BB12046984710E00E
:1033A400A36C73B1204698470BE01A6812F4807F2F
:1033B40003D11A6822F008021A60236C0BB120466C
:1033C4009847E26D20239340334255D02268126817
:1033D40012F0100F50D0BB6094F83530DBB2052BDF
:1033E4000ED023681A6812F4802F33D01B6813F4AC
:1033F400002F2AD1636C002B3ED0204698473BE037
:103404002268136823F0160313602268536923F0BB
:1034140080035361236CA3B12268136823F008036B
:103424001360E26D3F239340BB60002384F8343083
:10343400012384F83530236D002B3FD02046984774
:103444003CE0A36C002BE7D1EBE7E36BA3B1204690
:10345400984711E01A6812F4807F09D11A6822F0A3
:1034640010021A60002384F83430012384F83530C4
:10347400E36B0BB120469847636DFBB1636D13F0AA
:10348400010F17D0052384F835302268136823F020
:1034940001031360019B01330193AB4204D82368F9
:1034A4001B6813F0010FF5D1002384F83430012395
:1034B40084F83530E36C0BB12046984703B0F0BD77
:1034C4007C000020B5814E1B074AD36823F4E063D7
:1034D4001B041B0C000200F4E060034343F0BF63D1
:1034E40043F40033D360704700ED00E030B4174B71
:1034F400DB68C3F30223C3F10704042C28BF0424AC
:103504001D1D062D18D9033B4FF0FF3505FA04F4B1
:1035140021EA0401994005FA03F322EA030319435B
:1035240000280BDB0901C9B200F1604000F56140DD
:1035340080F8001330BC70470023E5E700F00F006B
:103544000901C9B2024B1954F4E700BF00ED00E0D1
:1035540014ED00E0002807DB00F01F0240090123FE
:103564009340024A42F82030704700BF00E100E077
:103574000138B0F1807F0AD2064B5860064AF02128
:1035840082F823100020986007221A6070470120F7
:10359400704700BF10E000E000ED00E0042805D013
:1035A400054A136823F0040313607047024A136842
:1035B40043F004031360704710E000E010B50446C4
:1035C4000E4B18784FF47A73B3FBF0F30C4A10687F
:1035D400B0FBF3F0FFF7CCFF68B90F2C01D9012041
:1035E4000AE0002221464FF0FF30FFF77FFF054B32
:1035F4001C60002000E0012010BD00BF740000200A
:103604007C0000207800002008B50B4B1A6842F4B7
:1036140000721A601A6842F480621A601A6842F4EE
:1036240080721A600320FFF74FFF0020FFF7C6FFE8
:10363400FDF76EF9002008BD003C0240034A116802
:10364400034B1B780B441360704700BF902100208C
:1036540074000020014B1868704700BF90210020BF
:1036640038B50446FFF7F6FF0546B4F1FF3F02D034
:10367400044B1B781C44FFF7EDFF401BA042FAD318
:1036840038BD00BF740000202DE9F041064688468D
:1036940017461D463468A46838EA04030CBF0124A5
:1036A4000024BC4237D0B5F1FF3FF3D0FFF7D2FF7F
:1036B400069BC01AA84201D2002DEBD13268536890
:1036C40023F0E00353607368B3F5827F0BD0B36AD1
:1036D400B3F5005F14D0012386F85130002386F837
:1036E4005030032018E0B368B3F5004F02D0B3F5AF
:1036F400806FECD13268136823F040031360E6E76F
:103704003268136823F4005313603268136843F477
:1037140000531360DFE70020BDE8F08130B585B0C9
:103724000446164B1868164BA3FB0030400D4FF4AB
:103734007A7505FB00F003906368B3F5827F0BD0C4
:10374400039BBBB1039B013B039323689B6813F06A
:10375400800FF5D100200EE000920B46002280215C
:103764002046FFF791FF30B1636D43F0200363659A
:10377400032000E0002005B030BD00BF7C00002025
:10378400819F5E1600283BD010B504460023836257
:1037940090F85130002B2ED0022384F85130226847
:1037A400136823F0400313606368A2681343E2685C
:1037B40013432269134362691343A26902F400723A
:1037C4001343E2691343226A1343A16A22680B4339
:1037D4001360638B03F00403616A22680B43536034
:1037E4002268D36923F40063D36100206065012358
:1037F40084F8513010BD80F85030FDF7A5F8CBE7C0
:10380400012070472DE9F04383B01D4690F85030F5
:10381400012B00F0C780044688469146012380F8B6
:103824005030FFF717FF074694F85160F6B2012EA7
:1038340040F0A580B8F1000F00F0A280B9F1000FAC
:1038440000F09E80032384F8513000236365C4F89C
:103854003080A4F83490A4F83690A363A387E38758
:1038640063642364A368B3F5004F1ED023681A6809
:1038740012F0400F03D11A6842F040021A60E36864
:10388400B3F5006F17D0636813B1B9F1010F4DD1CF
:10389400226B236812781A73236B01332363E38E3C
:1038A4009BB2013B9BB2E38640E02268136843F479
:1038B40080431360DAE7636813B1B9F1010F16D1DD
:1038C400226B23681288DA60236B02332363E38E4E
:1038D4009BB2013B9BB2E38609E0FFF7BBFEC01B32
:1038E400A84202D3B5F1FF3F54D1002D54D0E38E4A
:1038F4009BB2002B2ED023689A6812F0020FECD0F2
:10390400226B1288DA60236B02332363E38E9BB24B
:10391400013B9BB2E386EAE7FFF79CFEC01BA8428B
:1039240002D3B5F1FF3F39D1002D39D0E38E9BB2DC
:1039340083B123689A6812F0020FEDD0226B1278DB
:103944001A73236B01332363E28E92B2013A92B26B
:10395400E286EBE73A4629462046FFF7DFFE08B148
:1039640020236365A36833B901932368DA6801925D
:103974009B680193019B636D13B9002600E0022646
:10398400012384F85130002384F85030304603B0CA
:10399400BDE8F0830326F3E70326F1E70326EFE708
:1039A4000326EDE70226F1E738B590F85030012BF5
:1039B4005CD00446012380F8503090F85150EDB2A9
:1039C4009D424DD100294CD0002A4AD0032380F8CF
:1039D40051300023436501638286C2868363436456
:1039E40003648387C3878368B3F5004F2AD0A36C2D
:1039F4001F4A1A64A36C1F4ADA63A36C1E4ADA6472
:103A0400A36C00221A652268E38E9BB20C32216BF0
:103A1400A06CFFF735FC0146D0B923681A6812F090
:103A2400400F03D11A6842F040021A6022685368BA
:103A340043F0200353602268536843F00203536049
:103A44000D460EE00268136843F480431360CEE72A
:103A5400636D43F010036365012384F8513000E083
:103A64000225002384F85030284638BD0225FBE7A0
:103A7400853A0008B33A0008913A00087047704745
:103A840008B5806BFFF7FBFF08BD704708B5806B76
:103A94000268536823F003035360436D43F010033B
:103AA4004365012380F85130FFF7EFFF08BD30B5BF
:103AB40083B00546846BFFF7CDFD2B681B6813F4B8
:103AC400807F23D1024621684B6823F020034B609A
:103AD40021684B6823F002034B6064212046FFF702
:103AE4001DFE18B1636D43F020036365A36833B909
:103AF40001932368DA6801929B680193019B002378
:103B0400E386012384F85130636D23B92046FFF71F
:103B1400B5FF03B030BD2046FFF7B7FFF9E700005B
:103B240070B504460268136923F44053C1680B431B
:103B3400136183680269134342691343C2691A43D8
:103B44000168CB6823F4164323F00C031343CB60C2
:103B54000268536923F4407381690B435361C36959
:103B6400B3F5004F36D00368654A934200F09A805B
:103B740002F58062934200F09580FEF76FFE002606
:103B8400051846EB06012D1846EB0101CB0043EA6C
:103B94005573EA001546194663689A009B0F281866
:103BA40046EB0101FCF72CFB564DA5FB00325109F5
:103BB400642303FB11031B013233A5FB03235B09BD
:103BC40003F0F00202EB011203F00F032168134427
:103BD4008B6093E003684A4A934233D002F58062D3
:103BE40093422FD0FEF73AFE0026051846EB060155
:103BF4002D1846EB0101CB0043EA5573EA00154644
:103C0400194662683346921846EB0303281846EBBC
:103C14000101FCF7F5FA3B4DA5FB00325109642381
:103C240003FB1103DB003233A5FB03235B095A00BA
:103C340002F4F87202EB011203F007032168134443
:103C44008B605BE0FEF71AFE0026051846EB0601C2
:103C54002D1846EB0101CB0043EA5573EA001546E3
:103C6400194662683346921846EB0303281846EB5C
:103C74000101FCF7C5FA234DA5FB00325109642369
:103C840003FB1103DB003233A5FB03235B095A005A
:103C940002F4F87202EB011203F0070321681344E3
:103CA4008B602BE0FEF7EAFD0026051846EB0601C3
:103CB4002D1846EB0101CB0043EA5573EA00154683
:103CC400194663689A009B0F281846EB0101FCF71C
:103CD40097FA0C4DA5FB00325109642303FB110331
:103CE4001B013233A5FB03235B0903F0F00202EB53
:103CF400011203F00F03216813448B6070BD00BFF1
:103D0400001001401F85EB5158B310B5044690F8DC
:103D140039300BB3242384F839302268D36823F470
:103D24000053D3602046FFF7FBFE2268136923F497
:103D3400904313612268536923F02A035361226874
:103D4400D36843F40053D3600020E063202384F855
:103D5400393084F83A3010BD80F83830FCF74CFE26
:103D6400D8E7012070470000054BD3F8882042F4BF
:103D74007002C3F888204FF000629A60704700BF59
:103D840000ED00E0C0B108B50346D0F8B80210B1A8
:103D94000020C3F8B802D3F8CC0210B10020C3F855
:103DA400CC0209B1C3F8B412012183F89C121A7031
:103DB4001846FCF7FFFF08BD0320704710B582B01A
:103DC4000023ADF8063059B10446C0F8B8128B6A26
:103DD4000DF106009847C4F8CC02002002B010BDD3
:103DE4000320FBE708B5FDF775F808BD08B5D0F862
:103DF400B83213B11B68984708BD0320FCE708B527
:103E0400D0F8B8320BB15B689847002008BD38B5CC
:103E1400044600F2AA25284600F02DF90123C4F82F
:103E24009432B4F8B032C4F8983294F8AA1201F07B
:103E34001F03012B0DD0022B10D02BB101F08001F8
:103E44002046FDF762F803E02946204600F0DEFA3A
:103E540038BD2946204600F011FBF9E729462046E3
:103E640000F040FBF4E738B504460D4631BB134679
:103E7400D0F89422032A01D0084638BDD0F85C114A
:103E8400D0F8602191420CD8D0F8B8321B691BB12C
:103E940090F89C22032A0FD0204600F05CFC2846B0
:103EA400EBE7891AC0F85C118A4228BF0A46194612
:103EB40000F049FC2846E0E79847EDE7D0F8B8322F
:103EC4009B692BB190F89C22032A03D19847D4E72D
:103ED4000320D2E70320D0E738B504460D46002975
:103EE40048D11346D0F89422022A05D094F8A0327F
:103EF400012B3AD0284638BDC269016A8A4211D8DA
:103F04008A421BD0D4F8B832DB681BB194F89C22E7
:103F1400032A27D080212046FCF7F7FF204600F033
:103F240025FCE3E7521AC261194600F0F5FB0023B1
:103F34001A4619462046FDF708F8D7E783699942DF
:103F4400E0D8D0F898229342DCD20022114600F047
:103F5400E3FB0021C4F898120B460A462046FCF7FE
:103F6400F4FFC3E720469847D4E7002384F8A0323F
:103F74002846C0E7D0F8B8325B692BB190F89C2290
:103F8400032A03D19847B6E70320B4E70320B2E736
:103F940070B50446012380F89C320023C0F89432A3
:103FA4004360C0F8A432D0F8BC3223B1D0F8B832A0
:103FB4005B68002198474023002211462046FCF705
:103FC40091FF0126A4F864614025C4F860512B4692
:103FD400002280212046FCF785FFA684256200206C
:103FE40070BD01740020704790F89C3280F89D32B7
:103FF400042380F89C320020704790F89C32042BF4
:1040040001D00020704790F89D3280F89C32F8E788
:1040140008B590F89C32032B01D0002008BDD0F8DD
:10402400B832DB69002BF8D09847F6E700207047D8
:10403400002070470020704708B5012380F89C32A7
:10404400D0F8B83213B15B6801799847002008BDF5
:10405400034600201A781AB10130C0B20133F9E7DF
:10406400704708B54B88012B00D008BDC0F8A432B6
:1040740000F071FBF9E70B7803704B7843708B7891
:10408400CA7843EA022343800B794A7943EA02233C
:1040940083808B79CA7943EA0223C380704710B5C1
:1040A40004468021FCF731FF00212046FCF72DFF58
:1040B40010BD30B583B004460D460023ADF806307C
:1040C4004A88130A013B0E2B00F2BC80DFE803F0A0
:1040D400153044BABA9EABBABABABABABABA080078
:1040E400D0F8B432DB6923B10DF10601007C9847A6
:1040F4000AE02946FFF7D3FF18E0D0F8B4321B6872
:104104000DF10601007C9847EA88002A00F0A3809C
:10411400BDF80630002B00F099809A4228BF1A4659
:10412400ADF806200146204600F0E9FA03B030BDA0
:10413400037C43B9D0F8B8329B6A0DF10600984766
:1041440002234370E0E7D0F8B832DB6A0DF10600D1
:10415400984702234370D7E7D2B2052A52D8DFE842
:1041640002F003101D2A3744D0F8B4325B6823B13F
:104174000DF10601007C9847C6E72946FFF78FFF3B
:10418400D4E7D0F8B4329B6823B10DF10601007C6A
:104194009847B9E72946FFF782FFC7E7D0F8B4325A
:1041A400DB6823B10DF10601007C9847ACE7294692
:1041B400FFF775FFBAE7D0F8B4321B6923B10DF1EC
:1041C4000601007C98479FE72946FFF768FFADE7A3
:1041D400D0F8B4325B6923B10DF10601007C984735
:1041E40092E72946FFF75BFFA0E7D0F8B4329B695A
:1041F40023B10DF10601007C984785E72946FFF7B6
:104204004EFF93E72946FFF74AFF8FE7037C33B954
:10421400D0F8B8325B6B0DF10600984774E7294675
:10422400FFF73DFF82E7037C43B9D0F8B8321B6B3C
:104234000DF1060098470723437065E72946FFF709
:104244002EFF73E72946FFF72AFF6FE7294620462A
:10425400FFF725FF6AE7204600F07DFA66E738B5E8
:1042640004468B88F3B9CB88E3B94B887F2B19D8E4
:1042740003F07F0590F89C32032B0CD080F89E52FB
:104284002946FCF752FE204600F065FA35B10223B8
:1042940084F89C3209E0FFF702FF06E0012384F86A
:1042A4009C3202E02046FFF7FAFE38BD70B50446A2
:1042B4000E468D782D4B1D70012D0FD890F89C3231
:1042C400022B0FD0032B23D0FFF7E9FE274B1978DD
:1042D4002046FFF794FD0325284670BDFFF7DFFE57
:1042E4000325F9E78DB145602946FFF77FFD0546B3
:1042F40020B131462046FFF7D2FEEDE7204600F01C
:104304002AFA032384F89C32E6E700F024FAE3E770
:10431400CDB141688D4225D0C9B2FFF770FD134B72
:10432400197861602046FFF761FD0546B0B131465A
:104334002046FFF7B4FE21792046FFF760FD0223F3
:1043440084F89C32C8E7022380F89C3245602946F1
:10435400FFF755FD204600F0FEF9BDE7204600F0CA
:10436400FAF9B9E700F0F7F90025B5E710020020E3
:1043740008B5CB88012B0AD190F89C32022B09D9BD
:10438400032B09D10122011D00F0B9F901E0FFF767
:1043940086FE08BD5BB213B9FFF781FEF9E701465B
:1043A400002341F8083F012200F0A9F9F1E708B51C
:1043B40090F89C32013B022B12D8CB88022B0CD1F3
:1043C4000123C360D0F8A4320BB10323C3600222DB
:1043D40000F10C0100F093F908BDFFF760FEFBE764
:1043E400FFF75DFEF8E708B590F89C32013B022B1D
:1043F40009D84B88012B00D008BD0023C0F8A43293
:1044040000F0A9F9F8E7FFF74AFEF5E738B50C78AC
:1044140004F06004202C06D0402C04D054B1FFF7E3
:104424003EFE002404E0D0F8B8329B689847044666
:10443400204638BD4D78092D1DD8DFE805F0121946
:104444001C161C08051C0F0BFFF733FEF0E7FFF7E3
:1044540006FFEDE7FFF72AFF0446E9E7FFF788FFC9
:10446400E6E7FFF7A4FF2C46E2E7FFF7FAFDDFE7F4
:10447400FFF7B9FFDCE7FFF712FED9E770B5054691
:104484000C460B7803F06003202B07D0402B05D09B
:1044940023B1FFF704FE0026304670BD95F89C3228
:1044A400013B022B18D82379012B0FD8D5F8B83249
:1044B4009B682146284698470646E388002BEBD1A3
:1044C4000028E9D1284600F046F9E5E721462846C8
:1044D400FFF7E5FD0026DFE721462846FFF7DFFD6D
:1044E4000026D9E7F8B506460D468B880C7804F00B
:1044F4006004202C08D0D9B2402C05D06CB12946D8
:10450400FFF7CDFD002406E0D6F8B8329B682946B3
:104514003046984704462046F8BD6F78012F2ED0C8
:10452400032F05D0002F56D02946FFF7B8FDF2E738
:1045340090F89C32022B05D0032B12D02946FFF7AA
:10454400AEFDE8E709B1802904D129463046FFF7DA
:10455400A6FDE0E7FCF7D9FC80213046FCF7D5FC4A
:10456400D9E76B8823B919B1802901D0EB881BB135
:10457400304600F0F0F8CEE7FCF7C7FCF8E790F817
:104584009C32022B05D0032B12D02946FFF787FD5E
:10459400C1E709B1802904D129463046FFF77FFDE0
:1045A400B9E7FCF7B2FC80213046FCF7AEFCB2E779
:1045B4006B88002BAFD111F07F0F09D1304600F08A
:1045C400CAF8D6F8B8329B68294630469847A2E71D
:1045D400FCF7A3FCF2E790F89C22022A06D0032AF7
:1045E40029D02946FFF75BFD3C4694E709B18029B1
:1045F40013D113F0800F15D101F07F0101EB81017C
:10460400890001F5A8713144043100230B600222B2
:10461400304600F074F83C467DE72946FFF73FFD3D
:104624003C4678E701F07F0101EB810189001031FC
:1046340031440431E9E75BB2002B1FDB01F00F02C8
:1046440002EB820200EB8202B2F8642122B3002B57
:1046540027DB01F07F0303EB83039C0004F5A874BC
:104664003444043409B1802924D100232360022274
:104674002146304600F043F83C464CE701F00F0277
:1046840002EB820200EB8202928C002ADFD12946DF
:10469400FFF705FD3C463EE72946FFF700FD3C4693
:1046A40039E701F07F0303EB83039C0010343444A7
:1046B4000434D7E73046FCF7B3FB10B10123236081
:1046C400D5E700232360D2E7C0B170B50D46164686
:1046D4000446FFF7BDFC01304000308028700323FE
:1046E4006B700223227842B1EA5401345A1CD2B2CC
:1046F4000021A9540233DBB2F4E770BD704710B552
:1047040013460222C0F894228361C3610A46002141
:10471400FCF713FC002010BD08B513460A4600211F
:10472400FCF70BFC002008BD10B513460322C0F8AB
:104734009422C0F85831C0F85C310A460021FCF7D5
:1047440004FC002010BD08B513460A460021FCF7FE
:10475400FCFB002008BD08B50423C0F894320023F4
:104764001A461946FCF7E9FB002008BD08B50523E5
:10477400C0F8943200231A461946FCF7E6FB0020E1
:1047840008BD10B5D0F8BC42D0F8C0325BB194F883
:104794000002FF2807D09B6894F80122214698471D
:1047A400FF2384F80032002010BD0000432303805F
:1047B40000487047B8000020432303800048704736
:1047C400FC00002043230380004870474C01002074
:1047D4000A230380004870474001002038B5D0F810
:1047E400BC5275B10446FCF732FBC5F80C02D4F890
:1047F400C032DB6805F50371D5F804029847002040
:1048040038BD0320FCE738B5D0F8C442D0F8BC3238
:104814004BB301EB810200EB820292694AB1C1EB16
:10482400C10504EB8504656CB2FBF5F405FB1422A9
:104834006AB10024C3F81442D0F8C02215690A46AC
:1048440003F50471D3F80802A847204638BD01EBEC
:10485400810300EB830300249C6123462246FCF77A
:104864006CFB2046F2E70320F0E7F0B583B0064680
:104874000C46D0F8BC7200238DF80730ADF8043034
:104884000B7813F0600527D0202D58D1CA88DAB1EF
:1048940013F0800F0CD0D0F8C0329B683946607892
:1048A4009847E28839463046FFF729FF002549E05A
:1048B4004B7887F800328B7987F80132CA883946F9
:1048C400FFF732FF00253DE0D0F8C0329B6800229C
:1048D40048789847002535E04F780B2F2BD8DFE830
:1048E40007F006312A2A2A2A2A2A2A2A142290F888
:1048F4009C32032B03D0FFF7D2FB032522E00222D4
:1049040001A9FFF7FCFE3D461CE090F89C32032B06
:1049140003D0FFF7C4FB032514E001220DF10701C6
:10492400FFF7EDFE0EE090F89C32032B0AD0FFF760
:10493400B6FB032506E0FFF7B2FB032502E0FFF711
:10494400AEFB0325284603B0F0BD38B504468121EB
:10495400FCF7D3FA0025258701212046FCF7CDFA80
:10496400A4F8785182212046FCF7C7FAA4F84C50E9
:10497400A4F84E50D4F8BC324BB1D4F8C0325B68C2
:104984009847D4F8BC0200F0E9F8C4F8BC520020FF
:1049940038BD70B504464FF4077000F0D7F8B8B3CB
:1049A4000646C4F8BC02237CBBBB4FF4007302224E
:1049B40081212046FCF796FA012525874FF40073E0
:1049C400022229462046FCF78DFAA4F878511023D8
:1049D400A4F84E300823032282212046FCF782FAF1
:1049E4000123A4F84C30D4F8C0321B689847002344
:1049F400C6F81432C6F81832257C15BB4FF4007380
:104A0400D6F8042201212046FCF79FFA284670BDFF
:104A14000023C4F8BC320225F8E740230222812196
:104A24002046FCF75FFA0125258740230222294608
:104A34002046FCF757FAA4F878511023A4F84E3016
:104A4400C8E74023D6F8042201212046FCF77DFA6A
:104A54000025DBE719B1C0F8C0120020704703201D
:104A64007047D0F8BC32C3F80812C3F810220020F3
:104A74007047D0F8BC32C3F804120020704710B558
:104A8400D0F8BC2292B1047C44B94FF40073D2F83C
:104A940004220121FCF759FA204610BD4023D2F824
:104AA40004220121FCF751FA0024F5E70324F3E77B
:104AB400DFF834D0002103E00C4B5B584350043141
:104AC4000B480C4B42189A42F6D30B4A02E00023DF
:104AD40042F8043B094B9A42F9D3FFF745F900F039
:104AE40011F8FBF7B5FE704700000420BC51000824
:104AF40000000020F4010020F4010020A421002083
:104B0400FEE7000070B50D4D0D4C641BA41000268B
:104B1400A64209D10B4D0C4C00F006F9641BA410FD
:104B24000026A64205D170BD55F8043B98470136CE
:104B3400EEE755F8043B98470136F2E7B451000814
:104B4400B4510008B4510008B8510008024B0146A2
:104B5400186800F063B800BF90010020024B0146C2
:104B6400186800F00BB800BF90010020024403460F
:104B7400934200D1704703F8011BF9E737B50029C8
:104B840048D051F8043C0190002BA1F10404B8BFB3
:104B9400E41800F0ADF8204A01981368154633B9BB
:104BA4006360146003B0BDE8304000F0A7B8A342CE
:104BB4000BD921686218934204BF1A685B6863606A
:104BC40004BF521822602C60ECE71A465B680BB1F4
:104BD400A342FAD911685518A5420BD1246821447F
:104BE4005418A3421160DDD11C685B6853602144F2
:104BF4001160D7E702D90C230360D3E72568611954
:104C04008B4204BF19685B68636004BF4919216063
:104C14005460C7E703B030BD14020020F8B5CD1CC2
:104C240025F0030508350C2D38BF0C25002D06464C
:104C340001DBA94203D90C2333600020F8BD00F046
:104C440057F821490A6814469CB9204F3B6823B998
:104C54002146304600F03CF838602946304600F0E2
:104C640037F8431C23D10C233360304600F046F858
:104C7400E3E723685B1B17D40B2B03D923601C4485
:104C8400256004E06368A2420CBF0B6053603046A9
:104C940000F034F804F10B00231D20F00700C21AC1
:104CA400CCD01B1AA350C9E722466468CCE7C41CC5
:104CB40024F00304A042E3D0211A304600F008F89F
:104CC4000130DDD1CFE700BF14020020180200201C
:104CD40038B5064D0023044608462B6000F016F84C
:104CE400431C02D12B6803B1236038BD94210020FA
:104CF400014800F009B800BF9C210020014800F0E1
:104D040004B800BF9C21002070477047044A05493D
:104D14001368002B08BF0B461844106018467047F0
:104D24001C020020A8210020F8B500BFF8BC08BC74
:104D34009E467047F8B500BFF8BC08BC9E46704755
:104D440044444444444444474444447444444477B9
:104D5400444447444444474744444774444447779D
:104D640044447444444474474444747444447477D9
:104D740044447744444477474444777444447777BD
:104D8400444744444447444744474474444744776D
:104D94004447474444474747444747744447477751
:104DA400444774444447744744477474444774778D
:104DB4004447774444477747444777744447777771
:104DC4004474444444744447447444744474447779
:104DD400447447444474474744744774447447775D
:104DE4004474744444747447447474744474747799
:104DF400447477444474774744747774447477777D
:104E0400447744444477444744774474447744772C
:104E14004477474444774747447747744477477710
:104E2400447774444477744744777474447774774C
:104E34004477774444777747447777744477777730
:104E440047444444474444474744447447444477AC
:104E54004744474447444747474447744744477790
:104E640047447444474474474744747447447477CC
:104E740047447744474477474744777447447777B0
:104E84004747444447474447474744744747447760
:104E94004747474447474747474747744747477744
:104EA4004747744447477447474774744747747780
:104EB4004747774447477747474777744747777764
:104EC400477444444774444747744474477444776C
:104ED4004774474447744747477447744774477750
:104EE400477474444774744747747474477474778C
:104EF4004774774447747747477477744774777770
:104F0400477744444777444747774474477744771F
:104F14004777474447774747477747744777477703
:104F2400477774444777744747777474477774773F
:104F34004777774447777747477777744777777723
:104F440074444444744444477444447474444477F7
:104F540074444744744447477444477474444777DB
:104F64007444744474447447744474747444747717
:104F740074447744744477477444777474447777FB
:104F840074474444744744477447447474474477AB
:104F9400744747447447474774474774744747778F
:104FA40074477444744774477447747474477477CB
:104FB40074477744744777477447777474477777AF
:104FC40074744444747444477474447474744477B7
:104FD400747447447474474774744774747447779B
:104FE40074747444747474477474747474747477D7
:104FF40074747744747477477474777474747777BB
:10500400747744447477444774774474747744776A
:10501400747747447477474774774774747747774E
:10502400747774447477744774777474747774778A
:10503400747777447477774774777774747777776E
:1050440077444444774444477744447477444477EA
:1050540077444744774447477744477477444777CE
:10506400774474447744744777447474774474770A
:1050740077447744774477477744777477447777EE
:10508400774744447747444777474474774744779E
:105094007747474477474747774747747747477782
:1050A40077477444774774477747747477477477BE
:1050B40077477744774777477747777477477777A2
:1050C40077744444777444477774447477744477AA
:1050D400777447447774474777744774777447778E
:1050E40077747444777474477774747477747477CA
:1050F40077747744777477477774777477747777AE
:10510400777744447777444777774474777744775D
:105114007777474477774747777747747777477741
:10512400777774447777744777777474777774777D
:105134007777774477777747777777747777777761
:1051440053544D3332205669727475616C20436F29
:105154006D506F727400000053544D6963726F6533
:105164006C656374726F6E6963730000434443201B
:10517400436F6E666967000043444320496E74655B
:1051840072666163650000000006101600061016C2
:1051940000000000000000000102030406070809E3
:0851A4000000000001020304F9
:0851AC0088B0FF7F0100000044
:0451B400E901000805
:0451B800C501000825
:1051BC00C50A0008D10A00088D0B0008690B00080D
:1051CC00550B0008A90B0008CD0B0008DD0A0008E0
:1051DC00050F0C0001071002020000001201010271
:1051EC000202004083044057000201020301000048
:1051FC00040309041A030000000000000000000072
:10520C000000000000000000000000000000000092
:10521C00190C0008F10B0008F50B0008FD0B000839
:10522C00F90B000801000000100000000024F4003D
:10523C00974900084F4900086F480008000000001B
:10524C00874700080B480008E147000800000000F1
:10525C000000000000000000BD470008B147000836
:10526C00C9470008D547000809024300020100C0E5
:10527C00320904000001020201000524001001059E
:10528C002401000104240202052406000107058202
:10529C000308001009040100020A000000070501C0
:1052AC000240000007058102400000000902430093
:1052BC00020100C0320904000001020201000524B1
:1052CC00001001052401000104240202052406003B
:1052DC00010705820308001009040100020A0000FE
:1052EC000007050102000200070581020002000010
:1052FC000A060002000000400100000009074300FC
:10530C00020104C03209040000010202010005245C
:10531C0000100105240100010424020205240600EA
:10532C00010705820308001009040100020A0000AD
:10533C000007050102400000070581024000000043
:10534C00940100200000000000000000000000009C
:10535C000000000000000000000000000000000041
:10536C000000000000000000000000000000000031
:10537C000000000000000000000000000000000021
:10538C000000000000000000000000000000000011
:10539C000000000000000000000000000000000001
:0453AC0000000000FD
:0400000508004AB5F0
:00000001FF
